{
  "contractName": "CrowdFundingWithDeadline",
  "abi": [
    {
      "constant": true,
      "inputs": [],
      "name": "beneficiary",
      "outputs": [
        {
          "name": "",
          "type": "address"
        }
      ],
      "payable": false,
      "stateMutability": "view",
      "type": "function"
    },
    {
      "constant": true,
      "inputs": [
        {
          "name": "",
          "type": "address"
        }
      ],
      "name": "amounts",
      "outputs": [
        {
          "name": "",
          "type": "uint256"
        }
      ],
      "payable": false,
      "stateMutability": "view",
      "type": "function"
    },
    {
      "constant": true,
      "inputs": [],
      "name": "fundingDeadline",
      "outputs": [
        {
          "name": "",
          "type": "uint256"
        }
      ],
      "payable": false,
      "stateMutability": "view",
      "type": "function"
    },
    {
      "constant": true,
      "inputs": [],
      "name": "collected",
      "outputs": [
        {
          "name": "",
          "type": "bool"
        }
      ],
      "payable": false,
      "stateMutability": "view",
      "type": "function"
    },
    {
      "constant": true,
      "inputs": [],
      "name": "targetAmount",
      "outputs": [
        {
          "name": "",
          "type": "uint256"
        }
      ],
      "payable": false,
      "stateMutability": "view",
      "type": "function"
    },
    {
      "constant": true,
      "inputs": [],
      "name": "state",
      "outputs": [
        {
          "name": "",
          "type": "uint8"
        }
      ],
      "payable": false,
      "stateMutability": "view",
      "type": "function"
    },
    {
      "constant": true,
      "inputs": [],
      "name": "totalCollected",
      "outputs": [
        {
          "name": "",
          "type": "uint256"
        }
      ],
      "payable": false,
      "stateMutability": "view",
      "type": "function"
    },
    {
      "inputs": [
        {
          "name": "campaignName",
          "type": "string"
        },
        {
          "name": "targetAmountEth",
          "type": "uint256"
        },
        {
          "name": "durationInMin",
          "type": "uint256"
        },
        {
          "name": "beneficiaryAddress",
          "type": "address"
        }
      ],
      "payable": false,
      "stateMutability": "nonpayable",
      "type": "constructor"
    },
    {
      "anonymous": false,
      "inputs": [
        {
          "indexed": false,
          "name": "addr",
          "type": "address"
        },
        {
          "indexed": false,
          "name": "totalCollected",
          "type": "uint256"
        },
        {
          "indexed": false,
          "name": "succeeded",
          "type": "bool"
        }
      ],
      "name": "CampaignFinished",
      "type": "event"
    },
    {
      "constant": false,
      "inputs": [],
      "name": "contribute",
      "outputs": [],
      "payable": true,
      "stateMutability": "payable",
      "type": "function"
    },
    {
      "constant": false,
      "inputs": [],
      "name": "finishCrowdFunding",
      "outputs": [],
      "payable": false,
      "stateMutability": "nonpayable",
      "type": "function"
    },
    {
      "constant": false,
      "inputs": [],
      "name": "collect",
      "outputs": [],
      "payable": false,
      "stateMutability": "nonpayable",
      "type": "function"
    },
    {
      "constant": false,
      "inputs": [],
      "name": "withdraw",
      "outputs": [],
      "payable": false,
      "stateMutability": "nonpayable",
      "type": "function"
    },
    {
      "constant": true,
      "inputs": [],
      "name": "beforeDeadline",
      "outputs": [
        {
          "name": "",
          "type": "bool"
        }
      ],
      "payable": false,
      "stateMutability": "view",
      "type": "function"
    },
    {
      "constant": true,
      "inputs": [],
      "name": "getTotalCollected",
      "outputs": [
        {
          "name": "",
          "type": "uint256"
        }
      ],
      "payable": false,
      "stateMutability": "view",
      "type": "function"
    },
    {
      "constant": true,
      "inputs": [],
      "name": "inProgress",
      "outputs": [
        {
          "name": "",
          "type": "bool"
        }
      ],
      "payable": false,
      "stateMutability": "view",
      "type": "function"
    },
    {
      "constant": true,
      "inputs": [],
      "name": "isSuccessful",
      "outputs": [
        {
          "name": "",
          "type": "bool"
        }
      ],
      "payable": false,
      "stateMutability": "view",
      "type": "function"
    },
    {
      "constant": true,
      "inputs": [],
      "name": "name",
      "outputs": [
        {
          "name": "",
          "type": "string"
        }
      ],
      "payable": false,
      "stateMutability": "view",
      "type": "function"
    }
  ],
  "bytecode": "0x60806040523480156200001157600080fd5b50604051620010d6380380620010d68339810180604052810190808051820192919060200180519060200190929190805190602001909291908051906020019092919050505083600090805190602001906200006f92919062000260565b5073__Utils_________________________________63d8916bb9846040518263ffffffff167c01000000000000000000000000000000000000000000000000000000000281526004018082815260200191505060206040518083038186803b158015620000dc57600080fd5b505af4158015620000f1573d6000803e3d6000fd5b505050506040513d60208110156200010857600080fd5b810190808051906020019092919050505060018190555073__Utils_________________________________63529b380f836040518263ffffffff167c01000000000000000000000000000000000000000000000000000000000281526004018082815260200191505060206040518083038186803b1580156200018b57600080fd5b505af4158015620001a0573d6000803e3d6000fd5b505050506040513d6020811015620001b757600080fd5b8101908080519060200190929190505050620001e162000258640100000000026401000000009004565b0160028190555080600360006101000a81548173ffffffffffffffffffffffffffffffffffffffff021916908373ffffffffffffffffffffffffffffffffffffffff1602179055506000600360146101000a81548160ff021916908360038111156200024957fe5b0217905550505050506200030f565b600042905090565b828054600181600116156101000203166002900490600052602060002090601f016020900481019282601f10620002a357805160ff1916838001178555620002d4565b82800160010185558215620002d4579182015b82811115620002d3578251825591602001919060010190620002b6565b5b509050620002e39190620002e7565b5090565b6200030c91905b8082111562000308576000816000905550600101620002ee565b5090565b90565b610db7806200031f6000396000f3006080604052600436106100e6576000357c0100000000000000000000000000000000000000000000000000000000900463ffffffff16806306fdde03146100eb578063083dca111461017b57806338af3eed146101925780633ccfd60b146101e957806355a3b2c11461020057806368bc004114610257578063796b23bb1461028657806384bcefd4146102b157806387351813146102e0578063953b8fb81461030f578063c19d93fb1461033a578063d7bb99ba14610373578063e29eb8361461037d578063e5225381146103a8578063ec4cd0cf146103bf578063fbe5d87e146103ee575b600080fd5b3480156100f757600080fd5b50610100610419565b6040518080602001828103825283818151815260200191508051906020019080838360005b83811015610140578082015181840152602081019050610125565b50505050905090810190601f16801561016d5780820380516001836020036101000a031916815260200191505b509250505060405180910390f35b34801561018757600080fd5b506101906104bb565b005b34801561019e57600080fd5b506101a76106eb565b604051808273ffffffffffffffffffffffffffffffffffffffff1673ffffffffffffffffffffffffffffffffffffffff16815260200191505060405180910390f35b3480156101f557600080fd5b506101fe610711565b005b34801561020c57600080fd5b50610241600480360381019080803573ffffffffffffffffffffffffffffffffffffffff169060200190929190505050610973565b6040518082815260200191505060405180910390f35b34801561026357600080fd5b5061026c61098b565b604051808215151515815260200191505060405180910390f35b34801561029257600080fd5b5061029b61099e565b6040518082815260200191505060405180910390f35b3480156102bd57600080fd5b506102c66109a4565b604051808215151515815260200191505060405180910390f35b3480156102ec57600080fd5b506102f56109b7565b604051808215151515815260200191505060405180910390f35b34801561031b57600080fd5b50610324610a16565b6040518082815260200191505060405180910390f35b34801561034657600080fd5b5061034f610a1c565b6040518082600381111561035f57fe5b60ff16815260200191505060405180910390f35b61037b610a2f565b005b34801561038957600080fd5b50610392610bf8565b6040518082815260200191505060405180910390f35b3480156103b457600080fd5b506103bd610bfe565b005b3480156103cb57600080fd5b506103d4610d4a565b604051808215151515815260200191505060405180910390f35b3480156103fa57600080fd5b50610403610d79565b6040518082815260200191505060405180910390f35b606060008054600181600116156101000203166002900480601f0160208091040260200160405190810160405280929190818152602001828054600181600116156101000203166002900480156104b15780601f10610486576101008083540402835291602001916104b1565b820191906000526020600020905b81548152906001019060200180831161049457829003601f168201915b5050505050905090565b60008060038111156104c957fe5b600360149054906101000a900460ff1660038111156104e457fe5b141515610559576040517f08c379a000000000000000000000000000000000000000000000000000000000815260040180806020018281038252600d8152602001807f496e76616c69642073746174650000000000000000000000000000000000000081525060200191505060405180910390fd5b61056161098b565b1515156105fc576040517f08c379a00000000000000000000000000000000000000000000000000000000081526004018080602001828103825260288152602001807f43616e6e6f742066696e6973682063616d706169676e206265666f726520612081526020017f646561646c696e6500000000000000000000000000000000000000000000000081525060400191505060405180910390fd5b600560009054906101000a900460ff16151561063b576001600360146101000a81548160ff0219169083600381111561063157fe5b0217905550610660565b6002600360146101000a81548160ff0219169083600381111561065a57fe5b02179055505b7f6fa7e87ebbd87ed4f1c40bba63144f68fd2bb022fb748ab3b61b5411c39bd47430600654600560009054906101000a900460ff16604051808473ffffffffffffffffffffffffffffffffffffffff1673ffffffffffffffffffffffffffffffffffffffff16815260200183815260200182151515158152602001935050505060405180910390a150565b600360009054906101000a900473ffffffffffffffffffffffffffffffffffffffff1681565b6000600180600381111561072157fe5b600360149054906101000a900460ff16600381111561073c57fe5b1415156107b1576040517f08c379a000000000000000000000000000000000000000000000000000000000815260040180806020018281038252600d8152602001807f496e76616c69642073746174650000000000000000000000000000000000000081525060200191505060405180910390fd5b6000600460003373ffffffffffffffffffffffffffffffffffffffff1673ffffffffffffffffffffffffffffffffffffffff16815260200190815260200160002054111515610868576040517f08c379a00000000000000000000000000000000000000000000000000000000081526004018080602001828103825260178152602001807f4e6f7468696e672077617320636f6e747269627574656400000000000000000081525060200191505060405180910390fd5b600460003373ffffffffffffffffffffffffffffffffffffffff1673ffffffffffffffffffffffffffffffffffffffff1681526020019081526020016000205491506000600460003373ffffffffffffffffffffffffffffffffffffffff1673ffffffffffffffffffffffffffffffffffffffff168152602001908152602001600020819055503373ffffffffffffffffffffffffffffffffffffffff166108fc839081150290604051600060405180830381858888f19350505050151561096f5781600460003373ffffffffffffffffffffffffffffffffffffffff1673ffffffffffffffffffffffffffffffffffffffff168152602001908152602001600020819055505b5050565b60046020528060005260406000206000915090505481565b6000600254610998610d83565b10905090565b60025481565b600560009054906101000a900460ff1681565b60008060038111156109c557fe5b600360149054906101000a900460ff1660038111156109e057fe5b1480610a115750600260038111156109f457fe5b600360149054906101000a900460ff166003811115610a0f57fe5b145b905090565b60015481565b600360149054906101000a900460ff1681565b6000806003811115610a3d57fe5b600360149054906101000a900460ff166003811115610a5857fe5b141515610acd576040517f08c379a000000000000000000000000000000000000000000000000000000000815260040180806020018281038252600d8152602001807f496e76616c69642073746174650000000000000000000000000000000000000081525060200191505060405180910390fd5b610ad561098b565b1515610b6f576040517f08c379a00000000000000000000000000000000000000000000000000000000081526004018080602001828103825260218152602001807f4e6f20636f6e747269627574696f6e73206166746572206120646561646c696e81526020017f650000000000000000000000000000000000000000000000000000000000000081525060400191505060405180910390fd5b34600460003373ffffffffffffffffffffffffffffffffffffffff1673ffffffffffffffffffffffffffffffffffffffff1681526020019081526020016000206000828254019250508190555034600660008282540192505081905550600154600654101515610bf5576001600560006101000a81548160ff0219169083151502179055505b50565b60065481565b6002806003811115610c0c57fe5b600360149054906101000a900460ff166003811115610c2757fe5b141515610c9c576040517f08c379a000000000000000000000000000000000000000000000000000000000815260040180806020018281038252600d8152602001807f496e76616c69642073746174650000000000000000000000000000000000000081525060200191505060405180910390fd5b600360009054906101000a900473ffffffffffffffffffffffffffffffffffffffff1673ffffffffffffffffffffffffffffffffffffffff166108fc6006549081150290604051600060405180830381858888f1935050505015610d225760038060146101000a81548160ff02191690836003811115610d1857fe5b0217905550610d47565b6001600360146101000a81548160ff02191690836003811115610d4157fe5b02179055505b50565b6000600380811115610d5857fe5b600360149054906101000a900460ff166003811115610d7357fe5b14905090565b6000600654905090565b6000429050905600a165627a7a723058200d3a36ec60720adfa7eda7c210829880dcb50c1596085620d1d321147c9491320029",
  "source": "pragma solidity ^0.4.24;\r\n\r\nimport \"./Utils.sol\";\r\n\r\ncontract CrowdFundingWithDeadline {\r\n\r\n    using Utils for *;\r\n\r\n    enum State { Ongoing, Failed, Succeeded, PaidOut }\r\n\r\n    event CampaignFinished(\r\n        address addr,\r\n        uint totalCollected,\r\n        bool succeeded\r\n    );\r\n\r\n    string public name;\r\n    uint public targetAmount;\r\n    uint public fundingDeadline;\r\n    address public beneficiary;\r\n    State public state;\r\n    mapping(address => uint) public amounts;\r\n    bool public collected;\r\n    uint public totalCollected;\r\n\r\n    modifier inState(State expectedState) {\r\n        require(state == expectedState, \"Invalid state\");\r\n        _;\r\n    }\r\n\r\n    constructor(\r\n        string campaignName,\r\n        uint targetAmountEth,\r\n        uint durationInMin,\r\n        address beneficiaryAddress\r\n    )\r\n        public\r\n    {\r\n        name = campaignName;\r\n        targetAmount = Utils.etherToWei(targetAmountEth);\r\n        fundingDeadline = currentTime() + \r\n            Utils.minutesToSeconds(durationInMin);\r\n        beneficiary = beneficiaryAddress;\r\n        state = State.Ongoing;\r\n    }\r\n\r\n    function contribute() public payable inState(State.Ongoing) {\r\n        require(beforeDeadline(), \"No contributions after a deadline\");\r\n        amounts[msg.sender] += msg.value;\r\n        totalCollected += msg.value;\r\n\r\n        if (totalCollected >= targetAmount) {\r\n            collected = true;\r\n        }\r\n    }\r\n\r\n    function finishCrowdFunding() public inState(State.Ongoing) {\r\n        require(!beforeDeadline(), \"Cannot finish campaign before a deadline\");\r\n\r\n        if (!collected) {\r\n            state = State.Failed;\r\n        } else {\r\n            state = State.Succeeded;\r\n        }\r\n\r\n        emit CampaignFinished(this, totalCollected, collected);\r\n    }\r\n\r\n    function collect() public inState(State.Succeeded) {\r\n        if (beneficiary.send(totalCollected)) {\r\n            state = State.PaidOut;\r\n        } else {\r\n            state = State.Failed;\r\n        }\r\n    }\r\n\r\n    function withdraw() public inState(State.Failed) {\r\n        require(amounts[msg.sender] > 0, \"Nothing was contributed\");\r\n        uint contributed = amounts[msg.sender];\r\n        amounts[msg.sender] = 0;\r\n\r\n        if (!msg.sender.send(contributed)) {\r\n            amounts[msg.sender] = contributed;\r\n        }\r\n    }\r\n\r\n    function beforeDeadline() public view returns(bool) {\r\n        return currentTime() < fundingDeadline;\r\n    }\r\n\r\n    function currentTime() internal view returns(uint) {\r\n        return now;\r\n    }\r\n\r\n    function getTotalCollected() public view returns(uint) {\r\n        return totalCollected;\r\n    }\r\n\r\n    function inProgress() public view returns (bool) {\r\n        return state == State.Ongoing || state == State.Succeeded;\r\n    }\r\n\r\n    function isSuccessful() public view returns (bool) {\r\n        return state == State.PaidOut;\r\n    }\r\n\r\n    function name() public view returns (string) {\r\n        return name;\r\n    }\r\n}",
  "sourcePath": "C:\\Users\\kdsolanki\\Desktop\\KDSolanki\\BlockChain_POC_2\\contracts\\CrowdFundingWithDeadline.sol",
  "compiler": {
    "name": "solc",
    "version": "0.4.25+commit.59dbf8f1.Emscripten.clang"
  },
  "schemaVersion": "3.0.1",
  "updatedAt": "2019-01-26T09:55:12.496Z",
  "devdoc": {
    "methods": {}
  },
  "userdoc": {
    "methods": {}
  }
}