{
  "contractName": "TestCrowdFundingWithDeadline",
  "abi": [
    {
      "constant": true,
      "inputs": [],
      "name": "name",
      "outputs": [
        {
          "name": "",
          "type": "string"
        }
      ],
      "payable": false,
      "stateMutability": "view",
      "type": "function"
    },
    {
      "constant": false,
      "inputs": [],
      "name": "finishCrowdFunding",
      "outputs": [],
      "payable": false,
      "stateMutability": "nonpayable",
      "type": "function"
    },
    {
      "constant": true,
      "inputs": [],
      "name": "beneficiary",
      "outputs": [
        {
          "name": "",
          "type": "address"
        }
      ],
      "payable": false,
      "stateMutability": "view",
      "type": "function"
    },
    {
      "constant": false,
      "inputs": [],
      "name": "withdraw",
      "outputs": [],
      "payable": false,
      "stateMutability": "nonpayable",
      "type": "function"
    },
    {
      "constant": true,
      "inputs": [
        {
          "name": "",
          "type": "address"
        }
      ],
      "name": "amounts",
      "outputs": [
        {
          "name": "",
          "type": "uint256"
        }
      ],
      "payable": false,
      "stateMutability": "view",
      "type": "function"
    },
    {
      "constant": true,
      "inputs": [],
      "name": "beforeDeadline",
      "outputs": [
        {
          "name": "",
          "type": "bool"
        }
      ],
      "payable": false,
      "stateMutability": "view",
      "type": "function"
    },
    {
      "constant": true,
      "inputs": [],
      "name": "fundingDeadline",
      "outputs": [
        {
          "name": "",
          "type": "uint256"
        }
      ],
      "payable": false,
      "stateMutability": "view",
      "type": "function"
    },
    {
      "constant": true,
      "inputs": [],
      "name": "collected",
      "outputs": [
        {
          "name": "",
          "type": "bool"
        }
      ],
      "payable": false,
      "stateMutability": "view",
      "type": "function"
    },
    {
      "constant": true,
      "inputs": [],
      "name": "inProgress",
      "outputs": [
        {
          "name": "",
          "type": "bool"
        }
      ],
      "payable": false,
      "stateMutability": "view",
      "type": "function"
    },
    {
      "constant": true,
      "inputs": [],
      "name": "targetAmount",
      "outputs": [
        {
          "name": "",
          "type": "uint256"
        }
      ],
      "payable": false,
      "stateMutability": "view",
      "type": "function"
    },
    {
      "constant": true,
      "inputs": [],
      "name": "state",
      "outputs": [
        {
          "name": "",
          "type": "uint8"
        }
      ],
      "payable": false,
      "stateMutability": "view",
      "type": "function"
    },
    {
      "constant": false,
      "inputs": [],
      "name": "contribute",
      "outputs": [],
      "payable": true,
      "stateMutability": "payable",
      "type": "function"
    },
    {
      "constant": true,
      "inputs": [],
      "name": "totalCollected",
      "outputs": [
        {
          "name": "",
          "type": "uint256"
        }
      ],
      "payable": false,
      "stateMutability": "view",
      "type": "function"
    },
    {
      "constant": false,
      "inputs": [],
      "name": "collect",
      "outputs": [],
      "payable": false,
      "stateMutability": "nonpayable",
      "type": "function"
    },
    {
      "constant": true,
      "inputs": [],
      "name": "isSuccessful",
      "outputs": [
        {
          "name": "",
          "type": "bool"
        }
      ],
      "payable": false,
      "stateMutability": "view",
      "type": "function"
    },
    {
      "constant": true,
      "inputs": [],
      "name": "getTotalCollected",
      "outputs": [
        {
          "name": "",
          "type": "uint256"
        }
      ],
      "payable": false,
      "stateMutability": "view",
      "type": "function"
    },
    {
      "inputs": [
        {
          "name": "contractName",
          "type": "string"
        },
        {
          "name": "targetAmountEth",
          "type": "uint256"
        },
        {
          "name": "durationInMin",
          "type": "uint256"
        },
        {
          "name": "beneficiaryAddress",
          "type": "address"
        }
      ],
      "payable": false,
      "stateMutability": "nonpayable",
      "type": "constructor"
    },
    {
      "anonymous": false,
      "inputs": [
        {
          "indexed": false,
          "name": "addr",
          "type": "address"
        },
        {
          "indexed": false,
          "name": "totalCollected",
          "type": "uint256"
        },
        {
          "indexed": false,
          "name": "succeeded",
          "type": "bool"
        }
      ],
      "name": "CampaignFinished",
      "type": "event"
    },
    {
      "constant": false,
      "inputs": [
        {
          "name": "newTime",
          "type": "uint256"
        }
      ],
      "name": "setCurrentTime",
      "outputs": [],
      "payable": false,
      "stateMutability": "nonpayable",
      "type": "function"
    }
  ],
  "bytecode": "0x60806040523480156200001157600080fd5b50604051620011243803806200112483398101806040528101908080518201929190602001805190602001909291908051906020019092919080519060200190929190505050838383838360009080519060200190620000739291906200026a565b5073__Utils_________________________________63d8916bb9846040518263ffffffff167c01000000000000000000000000000000000000000000000000000000000281526004018082815260200191505060206040518083038186803b158015620000e057600080fd5b505af4158015620000f5573d6000803e3d6000fd5b505050506040513d60208110156200010c57600080fd5b810190808051906020019092919050505060018190555073__Utils_________________________________63529b380f836040518263ffffffff167c01000000000000000000000000000000000000000000000000000000000281526004018082815260200191505060206040518083038186803b1580156200018f57600080fd5b505af4158015620001a4573d6000803e3d6000fd5b505050506040513d6020811015620001bb57600080fd5b8101908080519060200190929190505050620001e562000260640100000000026401000000009004565b0160028190555080600360006101000a81548173ffffffffffffffffffffffffffffffffffffffff021916908373ffffffffffffffffffffffffffffffffffffffff1602179055506000600360146101000a81548160ff021916908360038111156200024d57fe5b0217905550505050505050505062000319565b6000600754905090565b828054600181600116156101000203166002900490600052602060002090601f016020900481019282601f10620002ad57805160ff1916838001178555620002de565b82800160010185558215620002de579182015b82811115620002dd578251825591602001919060010190620002c0565b5b509050620002ed9190620002f1565b5090565b6200031691905b8082111562000312576000816000905550600101620002f8565b5090565b90565b610dfb80620003296000396000f3006080604052600436106100f1576000357c0100000000000000000000000000000000000000000000000000000000900463ffffffff16806306fdde03146100f6578063083dca111461018657806322f8e5661461019d57806338af3eed146101ca5780633ccfd60b1461022157806355a3b2c11461023857806368bc00411461028f578063796b23bb146102be57806384bcefd4146102e95780638735181314610318578063953b8fb814610347578063c19d93fb14610372578063d7bb99ba146103ab578063e29eb836146103b5578063e5225381146103e0578063ec4cd0cf146103f7578063fbe5d87e14610426575b600080fd5b34801561010257600080fd5b5061010b610451565b6040518080602001828103825283818151815260200191508051906020019080838360005b8381101561014b578082015181840152602081019050610130565b50505050905090810190601f1680156101785780820380516001836020036101000a031916815260200191505b509250505060405180910390f35b34801561019257600080fd5b5061019b6104f3565b005b3480156101a957600080fd5b506101c860048036038101908080359060200190929190505050610723565b005b3480156101d657600080fd5b506101df61072d565b604051808273ffffffffffffffffffffffffffffffffffffffff1673ffffffffffffffffffffffffffffffffffffffff16815260200191505060405180910390f35b34801561022d57600080fd5b50610236610753565b005b34801561024457600080fd5b50610279600480360381019080803573ffffffffffffffffffffffffffffffffffffffff1690602001909291905050506109b5565b6040518082815260200191505060405180910390f35b34801561029b57600080fd5b506102a46109cd565b604051808215151515815260200191505060405180910390f35b3480156102ca57600080fd5b506102d36109e0565b6040518082815260200191505060405180910390f35b3480156102f557600080fd5b506102fe6109e6565b604051808215151515815260200191505060405180910390f35b34801561032457600080fd5b5061032d6109f9565b604051808215151515815260200191505060405180910390f35b34801561035357600080fd5b5061035c610a58565b6040518082815260200191505060405180910390f35b34801561037e57600080fd5b50610387610a5e565b6040518082600381111561039757fe5b60ff16815260200191505060405180910390f35b6103b3610a71565b005b3480156103c157600080fd5b506103ca610c3a565b6040518082815260200191505060405180910390f35b3480156103ec57600080fd5b506103f5610c40565b005b34801561040357600080fd5b5061040c610d8c565b604051808215151515815260200191505060405180910390f35b34801561043257600080fd5b5061043b610dbb565b6040518082815260200191505060405180910390f35b606060008054600181600116156101000203166002900480601f0160208091040260200160405190810160405280929190818152602001828054600181600116156101000203166002900480156104e95780601f106104be576101008083540402835291602001916104e9565b820191906000526020600020905b8154815290600101906020018083116104cc57829003601f168201915b5050505050905090565b600080600381111561050157fe5b600360149054906101000a900460ff16600381111561051c57fe5b141515610591576040517f08c379a000000000000000000000000000000000000000000000000000000000815260040180806020018281038252600d8152602001807f496e76616c69642073746174650000000000000000000000000000000000000081525060200191505060405180910390fd5b6105996109cd565b151515610634576040517f08c379a00000000000000000000000000000000000000000000000000000000081526004018080602001828103825260288152602001807f43616e6e6f742066696e6973682063616d706169676e206265666f726520612081526020017f646561646c696e6500000000000000000000000000000000000000000000000081525060400191505060405180910390fd5b600560009054906101000a900460ff161515610673576001600360146101000a81548160ff0219169083600381111561066957fe5b0217905550610698565b6002600360146101000a81548160ff0219169083600381111561069257fe5b02179055505b7f6fa7e87ebbd87ed4f1c40bba63144f68fd2bb022fb748ab3b61b5411c39bd47430600654600560009054906101000a900460ff16604051808473ffffffffffffffffffffffffffffffffffffffff1673ffffffffffffffffffffffffffffffffffffffff16815260200183815260200182151515158152602001935050505060405180910390a150565b8060078190555050565b600360009054906101000a900473ffffffffffffffffffffffffffffffffffffffff1681565b6000600180600381111561076357fe5b600360149054906101000a900460ff16600381111561077e57fe5b1415156107f3576040517f08c379a000000000000000000000000000000000000000000000000000000000815260040180806020018281038252600d8152602001807f496e76616c69642073746174650000000000000000000000000000000000000081525060200191505060405180910390fd5b6000600460003373ffffffffffffffffffffffffffffffffffffffff1673ffffffffffffffffffffffffffffffffffffffff168152602001908152602001600020541115156108aa576040517f08c379a00000000000000000000000000000000000000000000000000000000081526004018080602001828103825260178152602001807f4e6f7468696e672077617320636f6e747269627574656400000000000000000081525060200191505060405180910390fd5b600460003373ffffffffffffffffffffffffffffffffffffffff1673ffffffffffffffffffffffffffffffffffffffff1681526020019081526020016000205491506000600460003373ffffffffffffffffffffffffffffffffffffffff1673ffffffffffffffffffffffffffffffffffffffff168152602001908152602001600020819055503373ffffffffffffffffffffffffffffffffffffffff166108fc839081150290604051600060405180830381858888f1935050505015156109b15781600460003373ffffffffffffffffffffffffffffffffffffffff1673ffffffffffffffffffffffffffffffffffffffff168152602001908152602001600020819055505b5050565b60046020528060005260406000206000915090505481565b60006002546109da610dc5565b10905090565b60025481565b600560009054906101000a900460ff1681565b6000806003811115610a0757fe5b600360149054906101000a900460ff166003811115610a2257fe5b1480610a53575060026003811115610a3657fe5b600360149054906101000a900460ff166003811115610a5157fe5b145b905090565b60015481565b600360149054906101000a900460ff1681565b6000806003811115610a7f57fe5b600360149054906101000a900460ff166003811115610a9a57fe5b141515610b0f576040517f08c379a000000000000000000000000000000000000000000000000000000000815260040180806020018281038252600d8152602001807f496e76616c69642073746174650000000000000000000000000000000000000081525060200191505060405180910390fd5b610b176109cd565b1515610bb1576040517f08c379a00000000000000000000000000000000000000000000000000000000081526004018080602001828103825260218152602001807f4e6f20636f6e747269627574696f6e73206166746572206120646561646c696e81526020017f650000000000000000000000000000000000000000000000000000000000000081525060400191505060405180910390fd5b34600460003373ffffffffffffffffffffffffffffffffffffffff1673ffffffffffffffffffffffffffffffffffffffff1681526020019081526020016000206000828254019250508190555034600660008282540192505081905550600154600654101515610c37576001600560006101000a81548160ff0219169083151502179055505b50565b60065481565b6002806003811115610c4e57fe5b600360149054906101000a900460ff166003811115610c6957fe5b141515610cde576040517f08c379a000000000000000000000000000000000000000000000000000000000815260040180806020018281038252600d8152602001807f496e76616c69642073746174650000000000000000000000000000000000000081525060200191505060405180910390fd5b600360009054906101000a900473ffffffffffffffffffffffffffffffffffffffff1673ffffffffffffffffffffffffffffffffffffffff166108fc6006549081150290604051600060405180830381858888f1935050505015610d645760038060146101000a81548160ff02191690836003811115610d5a57fe5b0217905550610d89565b6001600360146101000a81548160ff02191690836003811115610d8357fe5b02179055505b50565b6000600380811115610d9a57fe5b600360149054906101000a900460ff166003811115610db557fe5b14905090565b6000600654905090565b60006007549050905600a165627a7a72305820e19590efb47b198e9dce0f81ead011b5086de525ebde0a27d012eb1f00c2118d0029",
  "source": "pragma solidity ^0.4.24;\r\nimport \"./CrowdFundingWithDeadline.sol\";\r\n\r\ncontract TestCrowdFundingWithDeadline is CrowdFundingWithDeadline {\r\n    uint time;\r\n\r\n    constructor(\r\n        string contractName,\r\n        uint targetAmountEth,\r\n        uint durationInMin,\r\n        address beneficiaryAddress\r\n    )\r\n        CrowdFundingWithDeadline(contractName, targetAmountEth, durationInMin, beneficiaryAddress)\r\n        public\r\n    {\r\n\r\n    }\r\n\r\n    function currentTime() internal view returns(uint) {\r\n        return time;\r\n    }\r\n\r\n    function setCurrentTime(uint newTime) public {\r\n        time = newTime;\r\n    }\r\n}",
  "sourcePath": "C:/Users/kdsolanki/Desktop/KDSolanki/BlockChain_POC_2/contracts/TestCrowdFundingWithDeadline.sol",
  "compiler": {
    "name": "solc",
    "version": "0.4.25+commit.59dbf8f1.Emscripten.clang"
  },
  "schemaVersion": "3.0.1",
  "updatedAt": "2019-01-26T09:55:12.496Z",
  "devdoc": {
    "methods": {}
  },
  "userdoc": {
    "methods": {}
  }
}