{
  "contractName": "Utils",
  "abi": [
    {
      "constant": true,
      "inputs": [
        {
          "name": "sumInEth",
          "type": "uint256"
        }
      ],
      "name": "etherToWei",
      "outputs": [
        {
          "name": "",
          "type": "uint256"
        }
      ],
      "payable": false,
      "stateMutability": "pure",
      "type": "function"
    },
    {
      "constant": true,
      "inputs": [
        {
          "name": "timeInMin",
          "type": "uint256"
        }
      ],
      "name": "minutesToSeconds",
      "outputs": [
        {
          "name": "",
          "type": "uint256"
        }
      ],
      "payable": false,
      "stateMutability": "pure",
      "type": "function"
    }
  ],
  "bytecode": "0x610116610030600b82828239805160001a6073146000811461002057610022565bfe5b5030600052607381538281f30073000000000000000000000000000000000000000030146080604052600436106060576000357c0100000000000000000000000000000000000000000000000000000000900463ffffffff168063529b380f146065578063d8916bb9146097575b600080fd5b60816004803603810190808035906020019092919050505060c9565b6040518082815260200191505060405180910390f35b60b36004803603810190808035906020019092919050505060d6565b6040518082815260200191505060405180910390f35b6000603c82029050919050565b6000670de0b6b3a7640000820290509190505600a165627a7a7230582017126a43281f5ccc100287d9061cf10d246f8291024a7b8f46834c8254d4a38f0029",
  "source": "pragma solidity ^0.4.24;\r\n\r\nlibrary Utils {\r\n\r\n    function etherToWei(uint sumInEth) public pure returns(uint) {\r\n        return sumInEth * 1 ether;\r\n    }\r\n\r\n    function minutesToSeconds(uint timeInMin) public pure returns(uint) {\r\n        return timeInMin * 1 minutes;\r\n    }\r\n}",
  "sourcePath": "C:\\Users\\kdsolanki\\Desktop\\KDSolanki\\BlockChain_POC_2\\contracts\\Utils.sol",
  "compiler": {
    "name": "solc",
    "version": "0.4.25+commit.59dbf8f1.Emscripten.clang"
  },
  "schemaVersion": "3.0.1",
  "updatedAt": "2019-01-26T09:55:12.496Z",
  "devdoc": {
    "methods": {}
  },
  "userdoc": {
    "methods": {}
  }
}